{
  "contractName": "Voting",
  "abi": [
    {
      "anonymous": false,
      "inputs": [
        {
          "indexed": true,
          "internalType": "address",
          "name": "previousOwner",
          "type": "address"
        },
        {
          "indexed": true,
          "internalType": "address",
          "name": "newOwner",
          "type": "address"
        }
      ],
      "name": "OwnershipTransferred",
      "type": "event"
    },
    {
      "anonymous": false,
      "inputs": [
        {
          "indexed": false,
          "internalType": "uint256",
          "name": "proposalId",
          "type": "uint256"
        }
      ],
      "name": "ProposalRegistered",
      "type": "event"
    },
    {
      "anonymous": false,
      "inputs": [],
      "name": "ProposalsRegistrationEnded",
      "type": "event"
    },
    {
      "anonymous": false,
      "inputs": [],
      "name": "ProposalsRegistrationStarted",
      "type": "event"
    },
    {
      "anonymous": false,
      "inputs": [
        {
          "indexed": false,
          "internalType": "address",
          "name": "voter",
          "type": "address"
        },
        {
          "indexed": false,
          "internalType": "uint256",
          "name": "proposalId",
          "type": "uint256"
        }
      ],
      "name": "Voted",
      "type": "event"
    },
    {
      "anonymous": false,
      "inputs": [
        {
          "indexed": false,
          "internalType": "address",
          "name": "voterAddress",
          "type": "address"
        }
      ],
      "name": "VoterRegistered",
      "type": "event"
    },
    {
      "anonymous": false,
      "inputs": [],
      "name": "VotesTallied",
      "type": "event"
    },
    {
      "anonymous": false,
      "inputs": [],
      "name": "VotingSessionEnded",
      "type": "event"
    },
    {
      "anonymous": false,
      "inputs": [],
      "name": "VotingSessionStarted",
      "type": "event"
    },
    {
      "anonymous": false,
      "inputs": [
        {
          "indexed": false,
          "internalType": "enum Voting.WorkflowStatus",
          "name": "previousStatus",
          "type": "uint8"
        },
        {
          "indexed": false,
          "internalType": "enum Voting.WorkflowStatus",
          "name": "newStatus",
          "type": "uint8"
        }
      ],
      "name": "WorkflowStatusChange",
      "type": "event"
    },
    {
      "inputs": [],
      "name": "owner",
      "outputs": [
        {
          "internalType": "address",
          "name": "",
          "type": "address"
        }
      ],
      "stateMutability": "view",
      "type": "function",
      "constant": true
    },
    {
      "inputs": [],
      "name": "renounceOwnership",
      "outputs": [],
      "stateMutability": "nonpayable",
      "type": "function"
    },
    {
      "inputs": [
        {
          "internalType": "address",
          "name": "newOwner",
          "type": "address"
        }
      ],
      "name": "transferOwnership",
      "outputs": [],
      "stateMutability": "nonpayable",
      "type": "function"
    },
    {
      "inputs": [],
      "name": "workflowStatus",
      "outputs": [
        {
          "internalType": "enum Voting.WorkflowStatus",
          "name": "",
          "type": "uint8"
        }
      ],
      "stateMutability": "view",
      "type": "function",
      "constant": true
    },
    {
      "inputs": [
        {
          "internalType": "address",
          "name": "_address",
          "type": "address"
        }
      ],
      "name": "addToWhitelist",
      "outputs": [],
      "stateMutability": "nonpayable",
      "type": "function"
    },
    {
      "inputs": [],
      "name": "startProposalsRegistration",
      "outputs": [],
      "stateMutability": "nonpayable",
      "type": "function"
    },
    {
      "inputs": [],
      "name": "closeProposalsRegistration",
      "outputs": [],
      "stateMutability": "nonpayable",
      "type": "function"
    },
    {
      "inputs": [],
      "name": "startVotingSession",
      "outputs": [],
      "stateMutability": "nonpayable",
      "type": "function"
    },
    {
      "inputs": [],
      "name": "closeVotingSession",
      "outputs": [],
      "stateMutability": "nonpayable",
      "type": "function"
    },
    {
      "inputs": [],
      "name": "tallyVotes",
      "outputs": [],
      "stateMutability": "nonpayable",
      "type": "function"
    },
    {
      "inputs": [
        {
          "internalType": "string",
          "name": "_description",
          "type": "string"
        }
      ],
      "name": "propose",
      "outputs": [],
      "stateMutability": "nonpayable",
      "type": "function"
    },
    {
      "inputs": [
        {
          "internalType": "uint256",
          "name": "_proposalId",
          "type": "uint256"
        }
      ],
      "name": "vote",
      "outputs": [],
      "stateMutability": "nonpayable",
      "type": "function"
    },
    {
      "inputs": [
        {
          "internalType": "address",
          "name": "_address",
          "type": "address"
        }
      ],
      "name": "isWhitelisted",
      "outputs": [
        {
          "internalType": "bool",
          "name": "",
          "type": "bool"
        }
      ],
      "stateMutability": "view",
      "type": "function",
      "constant": true
    },
    {
      "inputs": [],
      "name": "getWinningProposal",
      "outputs": [
        {
          "internalType": "uint256",
          "name": "_proposalId",
          "type": "uint256"
        },
        {
          "internalType": "string",
          "name": "_description",
          "type": "string"
        },
        {
          "internalType": "uint256",
          "name": "_voteCount",
          "type": "uint256"
        }
      ],
      "stateMutability": "view",
      "type": "function",
      "constant": true
    },
    {
      "inputs": [],
      "name": "getWhitelist",
      "outputs": [
        {
          "internalType": "address[]",
          "name": "",
          "type": "address[]"
        }
      ],
      "stateMutability": "view",
      "type": "function",
      "constant": true
    },
    {
      "inputs": [],
      "name": "getProposals",
      "outputs": [
        {
          "internalType": "string[]",
          "name": "",
          "type": "string[]"
        }
      ],
      "stateMutability": "view",
      "type": "function",
      "constant": true
    }
  ],
  "bytecode": "0x608060405260006004556000600660006101000a81548160ff0219169083600581111561002857fe5b021790555034801561003957600080fd5b50600061004a6100ed60201b60201c565b9050806000806101000a81548173ffffffffffffffffffffffffffffffffffffffff021916908373ffffffffffffffffffffffffffffffffffffffff1602179055508073ffffffffffffffffffffffffffffffffffffffff16600073ffffffffffffffffffffffffffffffffffffffff167f8be0079c531659141344cd1fd0a4f28419497f9722a3daafe3b4186f6b6457e060405160405180910390a3506100f5565b600033905090565b612455806101046000396000f3fe608060405234801561001057600080fd5b50600436106101005760003560e01c8063a1edffa211610097578063e09b8c7911610066578063e09b8c791461022d578063e43252d714610237578063ee74c67814610253578063f2fde38b1461025d57610100565b8063a1edffa2146101b5578063a5134620146101d3578063aa98df39146101f3578063d01f63f51461020f57610100565b806362564c48116100d357806362564c4814610165578063715018a6146101835780638da5cb5b1461018d5780639e782898146101ab57610100565b80630121b93f14610105578063378a2178146101215780633af32abf1461012b5780634de17bca1461015b575b600080fd5b61011f600480360381019061011a9190611806565b610279565b005b610129610561565b005b6101456004803603810190610140919061179c565b61067d565b6040516101529190611f7e565b60405180910390f35b6101636106d6565b005b61016d6107f2565b60405161017a9190611f5c565b60405180910390f35b61018b61093e565b005b610195610a79565b6040516101a29190611ef6565b60405180910390f35b6101b3610aa2565b005b6101bd610bbe565b6040516101ca9190611f99565b60405180910390f35b6101db610bd1565b6040516101ea939291906121b8565b60405180910390f35b61020d600480360381019061020891906117c5565b610d36565b005b610217610e91565b6040516102249190611f3a565b60405180910390f35b610235610f1f565b005b610251600480360381019061024c919061179c565b61103b565b005b61025b6112a7565b005b6102776004803603810190610272919061179c565b6113c3565b005b6003600581111561028657fe5b600660009054906101000a900460ff1660058111156102a157fe5b146102e1576040517f08c379a00000000000000000000000000000000000000000000000000000000081526004016102d890611fdd565b60405180910390fd5b6102ea3361067d565b610329576040517f08c379a00000000000000000000000000000000000000000000000000000000081526004016103209061207d565b60405180910390fd5b6001805490508110610370576040517f08c379a00000000000000000000000000000000000000000000000000000000081526004016103679061209d565b60405180910390fd5b600260003373ffffffffffffffffffffffffffffffffffffffff1673ffffffffffffffffffffffffffffffffffffffff16815260200190815260200160002060000160019054906101000a900460ff1615610400576040517f08c379a00000000000000000000000000000000000000000000000000000000081526004016103f790611ffd565b60405180910390fd5b6001600260003373ffffffffffffffffffffffffffffffffffffffff1673ffffffffffffffffffffffffffffffffffffffff16815260200190815260200160002060000160016101000a81548160ff02191690831515021790555080600260003373ffffffffffffffffffffffffffffffffffffffff1673ffffffffffffffffffffffffffffffffffffffff16815260200190815260200160002060010181905550600181815481106104af57fe5b906000526020600020906002020160010160008154809291906001019190505550600454600182815481106104e057fe5b9060005260206000209060020201600101541115610525576001818154811061050557fe5b906000526020600020906002020160010154600481905550806005819055505b7f4d99b957a2bc29a30ebd96a7be8e68fe50a3c701db28a91436490b7d53870ca43382604051610556929190611f11565b60405180910390a150565b61056961156d565b73ffffffffffffffffffffffffffffffffffffffff16610587610a79565b73ffffffffffffffffffffffffffffffffffffffff16146105dd576040517f08c379a00000000000000000000000000000000000000000000000000000000081526004016105d4906120fd565b60405180910390fd5b600460058111156105ea57fe5b600660009054906101000a900460ff16600581111561060557fe5b14610645576040517f08c379a000000000000000000000000000000000000000000000000000000000815260040161063c9061215d565b60405180910390fd5b61064f6005611575565b7f0e5e95ff8725ab3e7a4b6b59998a4c344c2aa8d1485f5e60cb7f337768e6134760405160405180910390a1565b6000600260008373ffffffffffffffffffffffffffffffffffffffff1673ffffffffffffffffffffffffffffffffffffffff16815260200190815260200160002060000160009054906101000a900460ff169050919050565b6106de61156d565b73ffffffffffffffffffffffffffffffffffffffff166106fc610a79565b73ffffffffffffffffffffffffffffffffffffffff1614610752576040517f08c379a0000000000000000000000000000000000000000000000000000000008152600401610749906120fd565b60405180910390fd5b6003600581111561075f57fe5b600660009054906101000a900460ff16600581111561077a57fe5b146107ba576040517f08c379a00000000000000000000000000000000000000000000000000000000081526004016107b19061213d565b60405180910390fd5b6107c46004611575565b7fc379d349a6301baf50fb2f98d829f4ae10b1cdb7c66f4e4d8117302df7b8cd4c60405160405180910390a1565b60608060018054905067ffffffffffffffff8111801561081157600080fd5b5060405190808252806020026020018201604052801561084557816020015b60608152602001906001900390816108305790505b50905060008090505b600180549050811015610936576001818154811061086857fe5b90600052602060002090600202016000018054600181600116156101000203166002900480601f01602080910402602001604051908101604052809291908181526020018280546001816001161561010002031660029004801561090d5780601f106108e25761010080835404028352916020019161090d565b820191906000526020600020905b8154815290600101906020018083116108f057829003601f168201915b505050505082828151811061091e57fe5b6020026020010181905250808060010191505061084e565b508091505090565b61094661156d565b73ffffffffffffffffffffffffffffffffffffffff16610964610a79565b73ffffffffffffffffffffffffffffffffffffffff16146109ba576040517f08c379a00000000000000000000000000000000000000000000000000000000081526004016109b1906120fd565b60405180910390fd5b600073ffffffffffffffffffffffffffffffffffffffff166000809054906101000a900473ffffffffffffffffffffffffffffffffffffffff1673ffffffffffffffffffffffffffffffffffffffff167f8be0079c531659141344cd1fd0a4f28419497f9722a3daafe3b4186f6b6457e060405160405180910390a360008060006101000a81548173ffffffffffffffffffffffffffffffffffffffff021916908373ffffffffffffffffffffffffffffffffffffffff160217905550565b60008060009054906101000a900473ffffffffffffffffffffffffffffffffffffffff16905090565b610aaa61156d565b73ffffffffffffffffffffffffffffffffffffffff16610ac8610a79565b73ffffffffffffffffffffffffffffffffffffffff1614610b1e576040517f08c379a0000000000000000000000000000000000000000000000000000000008152600401610b15906120fd565b60405180910390fd5b60016005811115610b2b57fe5b600660009054906101000a900460ff166005811115610b4657fe5b14610b86576040517f08c379a0000000000000000000000000000000000000000000000000000000008152600401610b7d9061211d565b60405180910390fd5b610b906002611575565b7f240cb87b2e4df4c318e72bd714d45a9cad60249e883ff56b1fffd83a4595a8fa60405160405180910390a1565b600660009054906101000a900460ff1681565b60006060600060046005811115610be457fe5b600660009054906101000a900460ff166005811115610bff57fe5b14610c3f576040517f08c379a0000000000000000000000000000000000000000000000000000000008152600401610c36906120bd565b60405180910390fd5b610c4761165f565b600160055481548110610c5657fe5b9060005260206000209060020201604051806040016040529081600082018054600181600116156101000203166002900480601f016020809104026020016040519081016040528092919081815260200182805460018160011615610100020316600290048015610d085780601f10610cdd57610100808354040283529160200191610d08565b820191906000526020600020905b815481529060010190602001808311610ceb57829003601f168201915b5050505050815260200160018201548152505090506005548160000151826020015193509350935050909192565b60016005811115610d4357fe5b600660009054906101000a900460ff166005811115610d5e57fe5b14610d9e576040517f08c379a0000000000000000000000000000000000000000000000000000000008152600401610d95906120dd565b60405180910390fd5b610da73361067d565b610de6576040517f08c379a0000000000000000000000000000000000000000000000000000000008152600401610ddd9061207d565b60405180910390fd5b60016040518060400160405280838152602001600081525090806001815401808255809150506001900390600052602060002090600202016000909190919091506000820151816000019080519060200190610e43929190611679565b506020820151816001015550507f92e393e9b54e2f801d3ea4beb0c5e71a21cc34a5d34b77d0fb8a3aa1650dc18f6001808054905003604051610e86919061219d565b60405180910390a150565b60606003805480602002602001604051908101604052809291908181526020018280548015610f1557602002820191906000526020600020905b8160009054906101000a900473ffffffffffffffffffffffffffffffffffffffff1673ffffffffffffffffffffffffffffffffffffffff1681526020019060010190808311610ecb575b5050505050905090565b610f2761156d565b73ffffffffffffffffffffffffffffffffffffffff16610f45610a79565b73ffffffffffffffffffffffffffffffffffffffff1614610f9b576040517f08c379a0000000000000000000000000000000000000000000000000000000008152600401610f92906120fd565b60405180910390fd5b60006005811115610fa857fe5b600660009054906101000a900460ff166005811115610fc357fe5b14611003576040517f08c379a0000000000000000000000000000000000000000000000000000000008152600401610ffa9061217d565b60405180910390fd5b61100d6001611575565b7f344c25562921d075a298d34b6dd1fd00d36ff293974539dfd4a8c625d9f0064c60405160405180910390a1565b61104361156d565b73ffffffffffffffffffffffffffffffffffffffff16611061610a79565b73ffffffffffffffffffffffffffffffffffffffff16146110b7576040517f08c379a00000000000000000000000000000000000000000000000000000000081526004016110ae906120fd565b60405180910390fd5b600060058111156110c457fe5b600660009054906101000a900460ff1660058111156110df57fe5b1461111f576040517f08c379a00000000000000000000000000000000000000000000000000000000081526004016111169061217d565b60405180910390fd5b600260008273ffffffffffffffffffffffffffffffffffffffff1673ffffffffffffffffffffffffffffffffffffffff16815260200190815260200160002060000160009054906101000a900460ff16156111af576040517f08c379a00000000000000000000000000000000000000000000000000000000081526004016111a69061205d565b60405180910390fd5b6001600260008373ffffffffffffffffffffffffffffffffffffffff1673ffffffffffffffffffffffffffffffffffffffff16815260200190815260200160002060000160006101000a81548160ff0219169083151502179055506003819080600181540180825580915050600190039060005260206000200160009091909190916101000a81548173ffffffffffffffffffffffffffffffffffffffff021916908373ffffffffffffffffffffffffffffffffffffffff1602179055507fb6be2187d059cc2a55fe29e0e503b566e1e0f8c8780096e185429350acffd3dd8160405161129c9190611ef6565b60405180910390a150565b6112af61156d565b73ffffffffffffffffffffffffffffffffffffffff166112cd610a79565b73ffffffffffffffffffffffffffffffffffffffff1614611323576040517f08c379a000000000000000000000000000000000000000000000000000000000815260040161131a906120fd565b60405180910390fd5b6002600581111561133057fe5b600660009054906101000a900460ff16600581111561134b57fe5b1461138b576040517f08c379a00000000000000000000000000000000000000000000000000000000081526004016113829061203d565b60405180910390fd5b6113956003611575565b7f1b8e19a458c1bcd88553332c518cc5c4e2d5793e712ee766d4f1c14f672ef1f560405160405180910390a1565b6113cb61156d565b73ffffffffffffffffffffffffffffffffffffffff166113e9610a79565b73ffffffffffffffffffffffffffffffffffffffff161461143f576040517f08c379a0000000000000000000000000000000000000000000000000000000008152600401611436906120fd565b60405180910390fd5b600073ffffffffffffffffffffffffffffffffffffffff168173ffffffffffffffffffffffffffffffffffffffff1614156114af576040517f08c379a00000000000000000000000000000000000000000000000000000000081526004016114a69061201d565b60405180910390fd5b8073ffffffffffffffffffffffffffffffffffffffff166000809054906101000a900473ffffffffffffffffffffffffffffffffffffffff1673ffffffffffffffffffffffffffffffffffffffff167f8be0079c531659141344cd1fd0a4f28419497f9722a3daafe3b4186f6b6457e060405160405180910390a3806000806101000a81548173ffffffffffffffffffffffffffffffffffffffff021916908373ffffffffffffffffffffffffffffffffffffffff16021790555050565b600033905090565b61157d61156d565b73ffffffffffffffffffffffffffffffffffffffff1661159b610a79565b73ffffffffffffffffffffffffffffffffffffffff16146115f1576040517f08c379a00000000000000000000000000000000000000000000000000000000081526004016115e8906120fd565b60405180910390fd5b7f0a97a4ee45751e2abf3e4fc8946939630b11b371ea8ae39ccdc3056e98f5cc3f600660009054906101000a900460ff1682604051611631929190611fb4565b60405180910390a180600660006101000a81548160ff0219169083600581111561165757fe5b021790555050565b604051806040016040528060608152602001600081525090565b828054600181600116156101000203166002900490600052602060002090601f016020900481019282601f106116ba57805160ff19168380011785556116e8565b828001600101855582156116e8579182015b828111156116e75782518255916020019190600101906116cc565b5b5090506116f591906116f9565b5090565b61171b91905b808211156117175760008160009055506001016116ff565b5090565b90565b60008135905061172d816123f1565b92915050565b600082601f83011261174457600080fd5b813561175761175282612223565b6121f6565b9150808252602083016020830185838301111561177357600080fd5b61177e838284612391565b50505092915050565b60008135905061179681612408565b92915050565b6000602082840312156117ae57600080fd5b60006117bc8482850161171e565b91505092915050565b6000602082840312156117d757600080fd5b600082013567ffffffffffffffff8111156117f157600080fd5b6117fd84828501611733565b91505092915050565b60006020828403121561181857600080fd5b600061182684828501611787565b91505092915050565b600061183b838361186a565b60208301905092915050565b60006118538383611979565b905092915050565b61186481612349565b82525050565b611873816122ee565b82525050565b611882816122ee565b82525050565b60006118938261226f565b61189d81856122aa565b93506118a88361224f565b8060005b838110156118d95781516118c0888261182f565b97506118cb83612290565b9250506001810190506118ac565b5085935050505092915050565b60006118f18261227a565b6118fb81856122bb565b93508360208202850161190d8561225f565b8060005b85811015611949578484038952815161192a8582611847565b94506119358361229d565b925060208a01995050600181019050611911565b50829750879550505050505092915050565b61196481612300565b82525050565b6119738161235b565b82525050565b600061198482612285565b61198e81856122cc565b935061199e8185602086016123a0565b6119a7816123d3565b840191505092915050565b60006119bd82612285565b6119c781856122dd565b93506119d78185602086016123a0565b6119e0816123d3565b840191505092915050565b60006119f8601e836122dd565b91507f566f74696e672073657373696f6e206973206e6f7420737461727465642e00006000830152602082019050919050565b6000611a386017836122dd565b91507f596f75206861766520616c726561647920766f7465642e0000000000000000006000830152602082019050919050565b6000611a786026836122dd565b91507f4f776e61626c653a206e6577206f776e657220697320746865207a65726f206160008301527f64647265737300000000000000000000000000000000000000000000000000006020830152604082019050919050565b6000611ade6048836122dd565b91507f576f726b666c6f77537461747573206d7573742062652050726f706f73616c7360008301527f526567697374726174696f6e456e64656420746f2063616c6c2074686973206660208301527f756e6374696f6e2e0000000000000000000000000000000000000000000000006040830152606082019050919050565b6000611b6a6012836122dd565b91507f416c7265616479207265676973746572656400000000000000000000000000006000830152602082019050919050565b6000611baa6017836122dd565b91507f596f7520617265206e6f7420726567697374657265642e0000000000000000006000830152602082019050919050565b6000611bea6012836122dd565b91507f556e6b6e6f776e2070726f706f73616c496400000000000000000000000000006000830152602082019050919050565b6000611c2a601c836122dd565b91507f566f74696e672073657373696f6e206973206e6f7420656e6465642e000000006000830152602082019050919050565b6000611c6a6033836122dd565b91507f50726f706f73616c20726567697374726174696f6e206973206e6f742073746160008301527f72746564206f7220697320636c6f736565642e000000000000000000000000006020830152604082019050919050565b6000611cd06020836122dd565b91507f4f776e61626c653a2063616c6c6572206973206e6f7420746865206f776e65726000830152602082019050919050565b6000611d10604a836122dd565b91507f576f726b666c6f77537461747573206d7573742062652050726f706f73616c7360008301527f526567697374726174696f6e5374617274656420746f2063616c6c207468697360208301527f2066756e6374696f6e2e000000000000000000000000000000000000000000006040830152606082019050919050565b6000611d9c6042836122dd565b91507f576f726b666c6f77537461747573206d75737420626520566f74696e6753657360008301527f73696f6e5374617274656420746f2063616c6c20746869732066756e6374696f60208301527f6e2e0000000000000000000000000000000000000000000000000000000000006040830152606082019050919050565b6000611e286040836122dd565b91507f576f726b666c6f77537461747573206d75737420626520566f74696e6753657360008301527f73696f6e456e64656420746f2063616c6c20746869732066756e6374696f6e2e6020830152604082019050919050565b6000611e8e603f836122dd565b91507f576f726b666c6f77537461747573206d7573742062652052656769737465726960008301527f6e67566f7465727320746f2063616c6c20746869732066756e6374696f6e2e006020830152604082019050919050565b611ef08161233f565b82525050565b6000602082019050611f0b6000830184611879565b92915050565b6000604082019050611f26600083018561185b565b611f336020830184611ee7565b9392505050565b60006020820190508181036000830152611f548184611888565b905092915050565b60006020820190508181036000830152611f7681846118e6565b905092915050565b6000602082019050611f93600083018461195b565b92915050565b6000602082019050611fae600083018461196a565b92915050565b6000604082019050611fc9600083018561196a565b611fd6602083018461196a565b9392505050565b60006020820190508181036000830152611ff6816119eb565b9050919050565b6000602082019050818103600083015261201681611a2b565b9050919050565b6000602082019050818103600083015261203681611a6b565b9050919050565b6000602082019050818103600083015261205681611ad1565b9050919050565b6000602082019050818103600083015261207681611b5d565b9050919050565b6000602082019050818103600083015261209681611b9d565b9050919050565b600060208201905081810360008301526120b681611bdd565b9050919050565b600060208201905081810360008301526120d681611c1d565b9050919050565b600060208201905081810360008301526120f681611c5d565b9050919050565b6000602082019050818103600083015261211681611cc3565b9050919050565b6000602082019050818103600083015261213681611d03565b9050919050565b6000602082019050818103600083015261215681611d8f565b9050919050565b6000602082019050818103600083015261217681611e1b565b9050919050565b6000602082019050818103600083015261219681611e81565b9050919050565b60006020820190506121b26000830184611ee7565b92915050565b60006060820190506121cd6000830186611ee7565b81810360208301526121df81856119b2565b90506121ee6040830184611ee7565b949350505050565b6000604051905081810181811067ffffffffffffffff8211171561221957600080fd5b8060405250919050565b600067ffffffffffffffff82111561223a57600080fd5b601f19601f8301169050602081019050919050565b6000819050602082019050919050565b6000819050602082019050919050565b600081519050919050565b600081519050919050565b600081519050919050565b6000602082019050919050565b6000602082019050919050565b600082825260208201905092915050565b600082825260208201905092915050565b600082825260208201905092915050565b600082825260208201905092915050565b60006122f98261231f565b9050919050565b60008115159050919050565b600081905061231a826123e4565b919050565b600073ffffffffffffffffffffffffffffffffffffffff82169050919050565b6000819050919050565b60006123548261236d565b9050919050565b60006123668261230c565b9050919050565b60006123788261237f565b9050919050565b600061238a8261231f565b9050919050565b82818337600083830152505050565b60005b838110156123be5780820151818401526020810190506123a3565b838111156123cd576000848401525b50505050565b6000601f19601f8301169050919050565b600681106123ee57fe5b50565b6123fa816122ee565b811461240557600080fd5b50565b6124118161233f565b811461241c57600080fd5b5056fea2646970667358221220c456fb57c4f6683dc3f719da075cf64e588c2e8b267ead1d2bd6d364c3c77bec64736f6c634300060b0033",
  "immutableReferences": {},
  "source": "// SPDX-License-Identifier: UNLICENSED\npragma solidity 0.6.11;\npragma experimental ABIEncoderV2;\n \nimport \"@openzeppelin/contracts/access/Ownable.sol\";\n\n \ncontract Voting is Ownable {\n\n    enum WorkflowStatus {\n        RegisteringVoters,\n        ProposalsRegistrationStarted,\n        ProposalsRegistrationEnded,\n        VotingSessionStarted,\n        VotingSessionEnded,\n        VotesTallied\n    }\n    \n    struct Voter {\n        bool isRegistered;\n        bool hasVoted;\n        uint votedProposalId;\n    }\n\n    struct Proposal {\n        string description;\n        uint voteCount;\n    }\n    \n    \n    Proposal[] private proposals;\n    mapping(address => Voter) private voters;    \n    address[] private whitelist;\n\n    // I assume that we have only one winner and can't have draw...\n    uint private maxVoteCount = 0;\n    uint private winningProposalId;\n    \n    WorkflowStatus public workflowStatus = WorkflowStatus.RegisteringVoters;\n    \n\n    event VoterRegistered(address voterAddress);\n    event ProposalsRegistrationStarted();\n    event ProposalsRegistrationEnded();\n    event ProposalRegistered(uint proposalId);\n    event VotingSessionStarted();\n    event VotingSessionEnded();\n    event Voted (address voter, uint proposalId);\n    event VotesTallied();\n    event WorkflowStatusChange(WorkflowStatus previousStatus, WorkflowStatus newStatus);\n    \n\n    // ---------- Administrator only functions -----------\n    \n    function addToWhitelist(address _address) public onlyOwner {\n        require(workflowStatus == WorkflowStatus.RegisteringVoters, \"WorkflowStatus must be RegisteringVoters to call this function.\");\n        require(!voters[_address].isRegistered, \"Already registered\");\n\n        voters[_address].isRegistered = true;\n        whitelist.push(_address);\n        \n        emit VoterRegistered(_address);\n    }\n    \n    \n    function startProposalsRegistration() public onlyOwner {\n        require(workflowStatus == WorkflowStatus.RegisteringVoters, \"WorkflowStatus must be RegisteringVoters to call this function.\");\n        \n        changeStatus(WorkflowStatus.ProposalsRegistrationStarted);        \n        emit ProposalsRegistrationStarted();\n    }\n    \n    \n    function closeProposalsRegistration() public onlyOwner {\n        require(workflowStatus == WorkflowStatus.ProposalsRegistrationStarted, \"WorkflowStatus must be ProposalsRegistrationStarted to call this function.\");\n        \n        changeStatus(WorkflowStatus.ProposalsRegistrationEnded);\n        emit ProposalsRegistrationEnded();\n    }\n    \n    \n    function startVotingSession() public onlyOwner {\n        require(workflowStatus == WorkflowStatus.ProposalsRegistrationEnded, \"WorkflowStatus must be ProposalsRegistrationEnded to call this function.\");\n        \n        changeStatus(WorkflowStatus.VotingSessionStarted);\n        emit VotingSessionStarted();\n    }\n    \n    \n    function closeVotingSession() public onlyOwner {\n        require(workflowStatus == WorkflowStatus.VotingSessionStarted, \"WorkflowStatus must be VotingSessionStarted to call this function.\");\n        \n        changeStatus(WorkflowStatus.VotingSessionEnded);\n        emit VotingSessionEnded();\n    }\n    \n    \n    function tallyVotes() public onlyOwner {\n        require(workflowStatus == WorkflowStatus.VotingSessionEnded, \"WorkflowStatus must be VotingSessionEnded to call this function.\");\n        \n        // winning proposal already known, tracked in \"vote\" function.\n        \n        changeStatus(WorkflowStatus.VotesTallied);\n        emit VotesTallied();\n    }\n    \n\n    function changeStatus(WorkflowStatus _status) internal onlyOwner {\n      emit WorkflowStatusChange(workflowStatus, _status);\n      workflowStatus = _status;\n    }\n\n\n    // ---------- Electors functions ----------\n\n    function propose(string memory _description) public {\n        require(workflowStatus == WorkflowStatus.ProposalsRegistrationStarted, \"Proposal registration is not started or is closeed.\");\n        require(isWhitelisted(msg.sender), \"You are not registered.\");\n        \n        proposals.push(Proposal(_description, 0));\n        \n        emit ProposalRegistered(proposals.length - 1);\n    }\n    \n    \n    function vote(uint _proposalId) public {\n        require(workflowStatus == WorkflowStatus.VotingSessionStarted, \"Voting session is not started.\");\n        require(isWhitelisted(msg.sender), \"You are not registered.\");\n        require(_proposalId < proposals.length, \"Unknown proposalId\");\n\n        require(!voters[msg.sender].hasVoted, \"You have already voted.\");\n        voters[msg.sender].hasVoted = true;\n        voters[msg.sender].votedProposalId = _proposalId;\n        \n        proposals[_proposalId].voteCount ++;\n        \n        // We track the winning proposal here, so we don't have to do a loop on votes later.\n        // But this works only if there is a single winner (no draw), otherwise the first with higher votes is the winner.\n        if (proposals[_proposalId].voteCount > maxVoteCount) {\n            maxVoteCount = proposals[_proposalId].voteCount;\n            winningProposalId = _proposalId;\n        }\n        \n        emit Voted(msg.sender, _proposalId);\n    }\n    \n    \n    function isWhitelisted(address _address) public view returns (bool) {\n        return voters[_address].isRegistered;\n    }\n    \n\n    function getWinningProposal() public view returns (uint _proposalId, string memory _description, uint _voteCount) {\n        require(workflowStatus == WorkflowStatus.VotingSessionEnded, \"Voting session is not ended.\");\n        \n        Proposal memory proposal = proposals[winningProposalId];\n        \n        return (winningProposalId, proposal.description, proposal.voteCount);\n    }\n\n\n    function getWhitelist() external view returns (address[] memory) {\n        return whitelist;\n    }\n\n\n    function getProposals() external view returns (string[] memory) {\n        string[] memory props = new string[](proposals.length);\n        for (uint i = 0; i < proposals.length; i++) {\n            props[i] = (proposals[i].description);\n        }\n\n        return props;\n    }\n\n} \n",
  "sourcePath": "C:/ws/alyra/dapp-votes/contracts/Voting.sol",
  "compiler": {
    "name": "solc",
    "version": "0.6.11+commit.5ef660b1.Emscripten.clang"
  },
  "schemaVersion": "3.3.4",
  "updatedAt": "2021-03-03T16:43:40.462Z",
  "networkType": "ethereum",
  "devdoc": {
    "kind": "dev",
    "methods": {
      "owner()": {
        "details": "Returns the address of the current owner."
      },
      "renounceOwnership()": {
        "details": "Leaves the contract without owner. It will not be possible to call `onlyOwner` functions anymore. Can only be called by the current owner. NOTE: Renouncing ownership will leave the contract without an owner, thereby removing any functionality that is only available to the owner."
      },
      "transferOwnership(address)": {
        "details": "Transfers ownership of the contract to a new account (`newOwner`). Can only be called by the current owner."
      }
    },
    "version": 1
  },
  "userdoc": {
    "kind": "user",
    "methods": {},
    "version": 1
  }
}