{
  "contractName": "Voting",
  "abi": [
    {
      "anonymous": false,
      "inputs": [
        {
          "indexed": true,
          "internalType": "address",
          "name": "previousOwner",
          "type": "address"
        },
        {
          "indexed": true,
          "internalType": "address",
          "name": "newOwner",
          "type": "address"
        }
      ],
      "name": "OwnershipTransferred",
      "type": "event"
    },
    {
      "anonymous": false,
      "inputs": [
        {
          "indexed": false,
          "internalType": "uint256",
          "name": "proposalId",
          "type": "uint256"
        }
      ],
      "name": "ProposalRegistered",
      "type": "event"
    },
    {
      "anonymous": false,
      "inputs": [],
      "name": "ProposalsRegistrationEnded",
      "type": "event"
    },
    {
      "anonymous": false,
      "inputs": [],
      "name": "ProposalsRegistrationStarted",
      "type": "event"
    },
    {
      "anonymous": false,
      "inputs": [
        {
          "indexed": false,
          "internalType": "address",
          "name": "voter",
          "type": "address"
        },
        {
          "indexed": false,
          "internalType": "uint256",
          "name": "proposalId",
          "type": "uint256"
        }
      ],
      "name": "Voted",
      "type": "event"
    },
    {
      "anonymous": false,
      "inputs": [
        {
          "indexed": false,
          "internalType": "address",
          "name": "voterAddress",
          "type": "address"
        }
      ],
      "name": "VoterRegistered",
      "type": "event"
    },
    {
      "anonymous": false,
      "inputs": [],
      "name": "VotesTallied",
      "type": "event"
    },
    {
      "anonymous": false,
      "inputs": [],
      "name": "VotingSessionEnded",
      "type": "event"
    },
    {
      "anonymous": false,
      "inputs": [],
      "name": "VotingSessionStarted",
      "type": "event"
    },
    {
      "anonymous": false,
      "inputs": [
        {
          "indexed": false,
          "internalType": "enum Voting.WorkflowStatus",
          "name": "previousStatus",
          "type": "uint8"
        },
        {
          "indexed": false,
          "internalType": "enum Voting.WorkflowStatus",
          "name": "newStatus",
          "type": "uint8"
        }
      ],
      "name": "WorkflowStatusChange",
      "type": "event"
    },
    {
      "inputs": [],
      "name": "owner",
      "outputs": [
        {
          "internalType": "address",
          "name": "",
          "type": "address"
        }
      ],
      "stateMutability": "view",
      "type": "function",
      "constant": true
    },
    {
      "inputs": [],
      "name": "renounceOwnership",
      "outputs": [],
      "stateMutability": "nonpayable",
      "type": "function"
    },
    {
      "inputs": [
        {
          "internalType": "address",
          "name": "newOwner",
          "type": "address"
        }
      ],
      "name": "transferOwnership",
      "outputs": [],
      "stateMutability": "nonpayable",
      "type": "function"
    },
    {
      "inputs": [
        {
          "internalType": "address",
          "name": "_address",
          "type": "address"
        }
      ],
      "name": "addToWhitelist",
      "outputs": [],
      "stateMutability": "nonpayable",
      "type": "function"
    },
    {
      "inputs": [],
      "name": "startProposalsRegistration",
      "outputs": [],
      "stateMutability": "nonpayable",
      "type": "function"
    },
    {
      "inputs": [],
      "name": "closeProposalsRegistration",
      "outputs": [],
      "stateMutability": "nonpayable",
      "type": "function"
    },
    {
      "inputs": [],
      "name": "startVotingSession",
      "outputs": [],
      "stateMutability": "nonpayable",
      "type": "function"
    },
    {
      "inputs": [],
      "name": "closeVotingSession",
      "outputs": [],
      "stateMutability": "nonpayable",
      "type": "function"
    },
    {
      "inputs": [],
      "name": "tallyVotes",
      "outputs": [],
      "stateMutability": "nonpayable",
      "type": "function"
    },
    {
      "inputs": [],
      "name": "getStatus",
      "outputs": [
        {
          "internalType": "enum Voting.WorkflowStatus",
          "name": "",
          "type": "uint8"
        }
      ],
      "stateMutability": "view",
      "type": "function",
      "constant": true
    },
    {
      "inputs": [
        {
          "internalType": "string",
          "name": "_description",
          "type": "string"
        }
      ],
      "name": "propose",
      "outputs": [],
      "stateMutability": "nonpayable",
      "type": "function"
    },
    {
      "inputs": [
        {
          "internalType": "uint256",
          "name": "_proposalId",
          "type": "uint256"
        }
      ],
      "name": "vote",
      "outputs": [],
      "stateMutability": "nonpayable",
      "type": "function"
    },
    {
      "inputs": [
        {
          "internalType": "address",
          "name": "_address",
          "type": "address"
        }
      ],
      "name": "isWhitelisted",
      "outputs": [
        {
          "internalType": "bool",
          "name": "",
          "type": "bool"
        }
      ],
      "stateMutability": "view",
      "type": "function",
      "constant": true
    },
    {
      "inputs": [],
      "name": "getWinningProposal",
      "outputs": [
        {
          "internalType": "uint256",
          "name": "_proposalId",
          "type": "uint256"
        },
        {
          "internalType": "string",
          "name": "_description",
          "type": "string"
        },
        {
          "internalType": "uint256",
          "name": "_voteCount",
          "type": "uint256"
        }
      ],
      "stateMutability": "view",
      "type": "function",
      "constant": true
    }
  ],
  "bytecode": "0x608060405260006003556000600560006101000a81548160ff0219169083600581111561002857fe5b021790555034801561003957600080fd5b50600061004a6100ed60201b60201c565b9050806000806101000a81548173ffffffffffffffffffffffffffffffffffffffff021916908373ffffffffffffffffffffffffffffffffffffffff1602179055508073ffffffffffffffffffffffffffffffffffffffff16600073ffffffffffffffffffffffffffffffffffffffff167f8be0079c531659141344cd1fd0a4f28419497f9722a3daafe3b4186f6b6457e060405160405180910390a3506100f5565b600033905090565b611cac806101046000396000f3fe608060405234801561001057600080fd5b50600436106100ea5760003560e01c80639e7828981161008c578063e09b8c7911610066578063e09b8c7914610363578063e43252d71461036d578063ee74c678146103b1578063f2fde38b146103bb576100ea565b80639e7828981461020d578063a513462014610217578063aa98df39146102a8576100ea565b80634de17bca116100c85780634de17bca146101835780634e69d5601461018d578063715018a6146101b95780638da5cb5b146101c3576100ea565b80630121b93f146100ef578063378a21781461011d5780633af32abf14610127575b600080fd5b61011b6004803603602081101561010557600080fd5b81019080803590602001909291905050506103ff565b005b6101256107e5565b005b6101696004803603602081101561013d57600080fd5b81019080803573ffffffffffffffffffffffffffffffffffffffff16906020019092919050505061094a565b604051808215151515815260200191505060405180910390f35b61018b6109a3565b005b610195610b08565b604051808260058111156101a557fe5b60ff16815260200191505060405180910390f35b6101c1610b1f565b005b6101cb610c8d565b604051808273ffffffffffffffffffffffffffffffffffffffff1673ffffffffffffffffffffffffffffffffffffffff16815260200191505060405180910390f35b610215610cb6565b005b61021f610e1b565b6040518084815260200180602001838152602001828103825284818151815260200191508051906020019080838360005b8381101561026b578082015181840152602081019050610250565b50505050905090810190601f1680156102985780820380516001836020036101000a031916815260200191505b5094505050505060405180910390f35b610361600480360360208110156102be57600080fd5b81019080803590602001906401000000008111156102db57600080fd5b8201836020820111156102ed57600080fd5b8035906020019184600183028401116401000000008311171561030f57600080fd5b91908080601f016020809104026020016040519081016040528093929190818152602001838380828437600081840152601f19601f820116905080830192505050505050509192919290505050610fb2565b005b61036b611156565b005b6103af6004803603602081101561038357600080fd5b81019080803573ffffffffffffffffffffffffffffffffffffffff1690602001909291905050506112bb565b005b6103b961156c565b005b6103fd600480360360208110156103d157600080fd5b81019080803573ffffffffffffffffffffffffffffffffffffffff1690602001909291905050506116d1565b005b6003600581111561040c57fe5b600560009054906101000a900460ff16600581111561042757fe5b1461049a576040517f08c379a000000000000000000000000000000000000000000000000000000000815260040180806020018281038252601e8152602001807f566f74696e672073657373696f6e206973206e6f7420737461727465642e000081525060200191505060405180910390fd5b6104a33361094a565b610515576040517f08c379a00000000000000000000000000000000000000000000000000000000081526004018080602001828103825260178152602001807f596f7520617265206e6f7420726567697374657265642e00000000000000000081525060200191505060405180910390fd5b600180549050811061058f576040517f08c379a00000000000000000000000000000000000000000000000000000000081526004018080602001828103825260128152602001807f556e6b6e6f776e2070726f706f73616c4964000000000000000000000000000081525060200191505060405180910390fd5b600260003373ffffffffffffffffffffffffffffffffffffffff1673ffffffffffffffffffffffffffffffffffffffff16815260200190815260200160002060000160019054906101000a900460ff1615610652576040517f08c379a00000000000000000000000000000000000000000000000000000000081526004018080602001828103825260178152602001807f596f75206861766520616c726561647920766f7465642e00000000000000000081525060200191505060405180910390fd5b6001600260003373ffffffffffffffffffffffffffffffffffffffff1673ffffffffffffffffffffffffffffffffffffffff16815260200190815260200160002060000160016101000a81548160ff02191690831515021790555080600260003373ffffffffffffffffffffffffffffffffffffffff1673ffffffffffffffffffffffffffffffffffffffff168152602001908152602001600020600101819055506001818154811061070157fe5b9060005260206000209060020201600101600081548092919060010191905055506003546001828154811061073257fe5b9060005260206000209060020201600101541115610777576001818154811061075757fe5b906000526020600020906002020160010154600381905550806004819055505b7f4d99b957a2bc29a30ebd96a7be8e68fe50a3c701db28a91436490b7d53870ca43382604051808373ffffffffffffffffffffffffffffffffffffffff1673ffffffffffffffffffffffffffffffffffffffff1681526020018281526020019250505060405180910390a150565b6107ed6118c4565b73ffffffffffffffffffffffffffffffffffffffff1661080b610c8d565b73ffffffffffffffffffffffffffffffffffffffff1614610894576040517f08c379a00000000000000000000000000000000000000000000000000000000081526004018080602001828103825260208152602001807f4f776e61626c653a2063616c6c6572206973206e6f7420746865206f776e657281525060200191505060405180910390fd5b600460058111156108a157fe5b600560009054906101000a900460ff1660058111156108bc57fe5b14610912576040517f08c379a0000000000000000000000000000000000000000000000000000000008152600401808060200182810382526040815260200180611bf86040913960400191505060405180910390fd5b61091c60056118cc565b7f0e5e95ff8725ab3e7a4b6b59998a4c344c2aa8d1485f5e60cb7f337768e6134760405160405180910390a1565b6000600260008373ffffffffffffffffffffffffffffffffffffffff1673ffffffffffffffffffffffffffffffffffffffff16815260200190815260200160002060000160009054906101000a900460ff169050919050565b6109ab6118c4565b73ffffffffffffffffffffffffffffffffffffffff166109c9610c8d565b73ffffffffffffffffffffffffffffffffffffffff1614610a52576040517f08c379a00000000000000000000000000000000000000000000000000000000081526004018080602001828103825260208152602001807f4f776e61626c653a2063616c6c6572206973206e6f7420746865206f776e657281525060200191505060405180910390fd5b60036005811115610a5f57fe5b600560009054906101000a900460ff166005811115610a7a57fe5b14610ad0576040517f08c379a0000000000000000000000000000000000000000000000000000000008152600401808060200182810382526042815260200180611bb66042913960600191505060405180910390fd5b610ada60046118cc565b7fc379d349a6301baf50fb2f98d829f4ae10b1cdb7c66f4e4d8117302df7b8cd4c60405160405180910390a1565b6000600560009054906101000a900460ff16905090565b610b276118c4565b73ffffffffffffffffffffffffffffffffffffffff16610b45610c8d565b73ffffffffffffffffffffffffffffffffffffffff1614610bce576040517f08c379a00000000000000000000000000000000000000000000000000000000081526004018080602001828103825260208152602001807f4f776e61626c653a2063616c6c6572206973206e6f7420746865206f776e657281525060200191505060405180910390fd5b600073ffffffffffffffffffffffffffffffffffffffff166000809054906101000a900473ffffffffffffffffffffffffffffffffffffffff1673ffffffffffffffffffffffffffffffffffffffff167f8be0079c531659141344cd1fd0a4f28419497f9722a3daafe3b4186f6b6457e060405160405180910390a360008060006101000a81548173ffffffffffffffffffffffffffffffffffffffff021916908373ffffffffffffffffffffffffffffffffffffffff160217905550565b60008060009054906101000a900473ffffffffffffffffffffffffffffffffffffffff16905090565b610cbe6118c4565b73ffffffffffffffffffffffffffffffffffffffff16610cdc610c8d565b73ffffffffffffffffffffffffffffffffffffffff1614610d65576040517f08c379a00000000000000000000000000000000000000000000000000000000081526004018080602001828103825260208152602001807f4f776e61626c653a2063616c6c6572206973206e6f7420746865206f776e657281525060200191505060405180910390fd5b60016005811115610d7257fe5b600560009054906101000a900460ff166005811115610d8d57fe5b14610de3576040517f08c379a000000000000000000000000000000000000000000000000000000000815260040180806020018281038252604a815260200180611b6c604a913960600191505060405180910390fd5b610ded60026118cc565b7f240cb87b2e4df4c318e72bd714d45a9cad60249e883ff56b1fffd83a4595a8fa60405160405180910390a1565b600060606000600580811115610e2d57fe5b600560009054906101000a900460ff166005811115610e4857fe5b14610ebb576040517f08c379a000000000000000000000000000000000000000000000000000000000815260040180806020018281038252601c8152602001807f566f74696e672073657373696f6e206973206e6f7420656e6465642e0000000081525060200191505060405180910390fd5b610ec3611a0b565b600160045481548110610ed257fe5b9060005260206000209060020201604051806040016040529081600082018054600181600116156101000203166002900480601f016020809104026020016040519081016040528092919081815260200182805460018160011615610100020316600290048015610f845780601f10610f5957610100808354040283529160200191610f84565b820191906000526020600020905b815481529060010190602001808311610f6757829003601f168201915b5050505050815260200160018201548152505090506004548160000151826020015193509350935050909192565b60016005811115610fbf57fe5b600560009054906101000a900460ff166005811115610fda57fe5b14611030576040517f08c379a0000000000000000000000000000000000000000000000000000000008152600401808060200182810382526033815260200180611b396033913960400191505060405180910390fd5b6110393361094a565b6110ab576040517f08c379a00000000000000000000000000000000000000000000000000000000081526004018080602001828103825260178152602001807f596f7520617265206e6f7420726567697374657265642e00000000000000000081525060200191505060405180910390fd5b60016040518060400160405280838152602001600081525090806001815401808255809150506001900390600052602060002090600202016000909190919091506000820151816000019080519060200190611108929190611a25565b506020820151816001015550507f92e393e9b54e2f801d3ea4beb0c5e71a21cc34a5d34b77d0fb8a3aa1650dc18f60018080549050036040518082815260200191505060405180910390a150565b61115e6118c4565b73ffffffffffffffffffffffffffffffffffffffff1661117c610c8d565b73ffffffffffffffffffffffffffffffffffffffff1614611205576040517f08c379a00000000000000000000000000000000000000000000000000000000081526004018080602001828103825260208152602001807f4f776e61626c653a2063616c6c6572206973206e6f7420746865206f776e657281525060200191505060405180910390fd5b6000600581111561121257fe5b600560009054906101000a900460ff16600581111561122d57fe5b14611283576040517f08c379a000000000000000000000000000000000000000000000000000000000815260040180806020018281038252603f815260200180611c38603f913960400191505060405180910390fd5b61128d60016118cc565b7f344c25562921d075a298d34b6dd1fd00d36ff293974539dfd4a8c625d9f0064c60405160405180910390a1565b6112c36118c4565b73ffffffffffffffffffffffffffffffffffffffff166112e1610c8d565b73ffffffffffffffffffffffffffffffffffffffff161461136a576040517f08c379a00000000000000000000000000000000000000000000000000000000081526004018080602001828103825260208152602001807f4f776e61626c653a2063616c6c6572206973206e6f7420746865206f776e657281525060200191505060405180910390fd5b6000600581111561137757fe5b600560009054906101000a900460ff16600581111561139257fe5b146113e8576040517f08c379a000000000000000000000000000000000000000000000000000000000815260040180806020018281038252603f815260200180611c38603f913960400191505060405180910390fd5b600260008273ffffffffffffffffffffffffffffffffffffffff1673ffffffffffffffffffffffffffffffffffffffff16815260200190815260200160002060000160009054906101000a900460ff16156114ab576040517f08c379a00000000000000000000000000000000000000000000000000000000081526004018080602001828103825260128152602001807f416c72656164792072656769737465726564000000000000000000000000000081525060200191505060405180910390fd5b6001600260008373ffffffffffffffffffffffffffffffffffffffff1673ffffffffffffffffffffffffffffffffffffffff16815260200190815260200160002060000160006101000a81548160ff0219169083151502179055507fb6be2187d059cc2a55fe29e0e503b566e1e0f8c8780096e185429350acffd3dd81604051808273ffffffffffffffffffffffffffffffffffffffff1673ffffffffffffffffffffffffffffffffffffffff16815260200191505060405180910390a150565b6115746118c4565b73ffffffffffffffffffffffffffffffffffffffff16611592610c8d565b73ffffffffffffffffffffffffffffffffffffffff161461161b576040517f08c379a00000000000000000000000000000000000000000000000000000000081526004018080602001828103825260208152602001807f4f776e61626c653a2063616c6c6572206973206e6f7420746865206f776e657281525060200191505060405180910390fd5b6002600581111561162857fe5b600560009054906101000a900460ff16600581111561164357fe5b14611699576040517f08c379a0000000000000000000000000000000000000000000000000000000008152600401808060200182810382526048815260200180611af16048913960600191505060405180910390fd5b6116a360036118cc565b7f1b8e19a458c1bcd88553332c518cc5c4e2d5793e712ee766d4f1c14f672ef1f560405160405180910390a1565b6116d96118c4565b73ffffffffffffffffffffffffffffffffffffffff166116f7610c8d565b73ffffffffffffffffffffffffffffffffffffffff1614611780576040517f08c379a00000000000000000000000000000000000000000000000000000000081526004018080602001828103825260208152602001807f4f776e61626c653a2063616c6c6572206973206e6f7420746865206f776e657281525060200191505060405180910390fd5b600073ffffffffffffffffffffffffffffffffffffffff168173ffffffffffffffffffffffffffffffffffffffff161415611806576040517f08c379a0000000000000000000000000000000000000000000000000000000008152600401808060200182810382526026815260200180611acb6026913960400191505060405180910390fd5b8073ffffffffffffffffffffffffffffffffffffffff166000809054906101000a900473ffffffffffffffffffffffffffffffffffffffff1673ffffffffffffffffffffffffffffffffffffffff167f8be0079c531659141344cd1fd0a4f28419497f9722a3daafe3b4186f6b6457e060405160405180910390a3806000806101000a81548173ffffffffffffffffffffffffffffffffffffffff021916908373ffffffffffffffffffffffffffffffffffffffff16021790555050565b600033905090565b6118d46118c4565b73ffffffffffffffffffffffffffffffffffffffff166118f2610c8d565b73ffffffffffffffffffffffffffffffffffffffff161461197b576040517f08c379a00000000000000000000000000000000000000000000000000000000081526004018080602001828103825260208152602001807f4f776e61626c653a2063616c6c6572206973206e6f7420746865206f776e657281525060200191505060405180910390fd5b7f0a97a4ee45751e2abf3e4fc8946939630b11b371ea8ae39ccdc3056e98f5cc3f600560009054906101000a900460ff1682604051808360058111156119bd57fe5b60ff1681526020018260058111156119d157fe5b60ff1681526020019250505060405180910390a180600560006101000a81548160ff02191690836005811115611a0357fe5b021790555050565b604051806040016040528060608152602001600081525090565b828054600181600116156101000203166002900490600052602060002090601f016020900481019282601f10611a6657805160ff1916838001178555611a94565b82800160010185558215611a94579182015b82811115611a93578251825591602001919060010190611a78565b5b509050611aa19190611aa5565b5090565b611ac791905b80821115611ac3576000816000905550600101611aab565b5090565b9056fe4f776e61626c653a206e6577206f776e657220697320746865207a65726f2061646472657373576f726b666c6f77537461747573206d7573742062652050726f706f73616c73526567697374726174696f6e456e64656420746f2063616c6c20746869732066756e6374696f6e2e50726f706f73616c20726567697374726174696f6e206973206e6f742073746172746564206f7220697320636c6f736565642e576f726b666c6f77537461747573206d7573742062652050726f706f73616c73526567697374726174696f6e5374617274656420746f2063616c6c20746869732066756e6374696f6e2e576f726b666c6f77537461747573206d75737420626520566f74696e6753657373696f6e5374617274656420746f2063616c6c20746869732066756e6374696f6e2e576f726b666c6f77537461747573206d75737420626520566f74696e6753657373696f6e456e64656420746f2063616c6c20746869732066756e6374696f6e2e576f726b666c6f77537461747573206d757374206265205265676973746572696e67566f7465727320746f2063616c6c20746869732066756e6374696f6e2ea26469706673582212209757fbeea2df6ffe78a47235cec3c6bdca728cd09188d92961028ce5993940b464736f6c634300060b0033",
  "immutableReferences": {},
  "source": "// SPDX-License-Identifier: UNLICENSED\npragma solidity 0.6.11;\n \nimport \"@openzeppelin/contracts/access/Ownable.sol\";\n\n \ncontract Voting is Ownable {\n\n    enum WorkflowStatus {\n        RegisteringVoters,\n        ProposalsRegistrationStarted,\n        ProposalsRegistrationEnded,\n        VotingSessionStarted,\n        VotingSessionEnded,\n        VotesTallied\n    }\n    \n    struct Voter {\n        bool isRegistered;\n        bool hasVoted;\n        uint votedProposalId;\n    }\n\n    struct Proposal {\n        string description;\n        uint voteCount;\n    }\n    \n    \n    Proposal[] proposals;\n    mapping(address => Voter) voters;\n    \n    // I assume that we have only one winner and can't have draw...\n    uint private maxVoteCount = 0;\n    uint private winningProposalId;\n    \n    WorkflowStatus workflowStatus = WorkflowStatus.RegisteringVoters;\n    \n\n    event VoterRegistered(address voterAddress);\n    event ProposalsRegistrationStarted();\n    event ProposalsRegistrationEnded();\n    event ProposalRegistered(uint proposalId);\n    event VotingSessionStarted();\n    event VotingSessionEnded();\n    event Voted (address voter, uint proposalId);\n    event VotesTallied();\n    event WorkflowStatusChange(WorkflowStatus previousStatus, WorkflowStatus newStatus);\n    \n\n    // ---------- Administrator only functions -----------\n    \n    function addToWhitelist(address _address) public onlyOwner {\n        require(workflowStatus == WorkflowStatus.RegisteringVoters, \"WorkflowStatus must be RegisteringVoters to call this function.\");\n        require(!voters[_address].isRegistered, \"Already registered\");\n\n        voters[_address].isRegistered = true;\n        \n        emit VoterRegistered(_address);\n    }\n    \n    \n    function startProposalsRegistration() public onlyOwner {\n        require(workflowStatus == WorkflowStatus.RegisteringVoters, \"WorkflowStatus must be RegisteringVoters to call this function.\");\n        \n        changeStatus(WorkflowStatus.ProposalsRegistrationStarted);        \n        emit ProposalsRegistrationStarted();\n    }\n    \n    \n    function closeProposalsRegistration() public onlyOwner {\n        require(workflowStatus == WorkflowStatus.ProposalsRegistrationStarted, \"WorkflowStatus must be ProposalsRegistrationStarted to call this function.\");\n        \n        changeStatus(WorkflowStatus.ProposalsRegistrationEnded);\n        emit ProposalsRegistrationEnded();\n    }\n    \n    \n    function startVotingSession() public onlyOwner {\n        require(workflowStatus == WorkflowStatus.ProposalsRegistrationEnded, \"WorkflowStatus must be ProposalsRegistrationEnded to call this function.\");\n        \n        changeStatus(WorkflowStatus.VotingSessionStarted);\n        emit VotingSessionStarted();\n    }\n    \n    \n    function closeVotingSession() public onlyOwner {\n        require(workflowStatus == WorkflowStatus.VotingSessionStarted, \"WorkflowStatus must be VotingSessionStarted to call this function.\");\n        \n        changeStatus(WorkflowStatus.VotingSessionEnded);\n        emit VotingSessionEnded();\n    }\n    \n    \n    function tallyVotes() public onlyOwner {\n        require(workflowStatus == WorkflowStatus.VotingSessionEnded, \"WorkflowStatus must be VotingSessionEnded to call this function.\");\n        \n        // winning proposal already known, tracked in \"vote\" function.\n        \n        changeStatus(WorkflowStatus.VotesTallied);\n        emit VotesTallied();\n    }\n    \n\n    function changeStatus(WorkflowStatus _status) internal onlyOwner {\n      emit WorkflowStatusChange(workflowStatus, _status);\n      workflowStatus = _status;\n    }\n\n\n    function getStatus() external view returns (WorkflowStatus) {\n        return workflowStatus;\n    }\n\n\n    // ---------- Electors functions ----------\n    \n    function propose(string memory _description) public {\n        require(workflowStatus == WorkflowStatus.ProposalsRegistrationStarted, \"Proposal registration is not started or is closeed.\");\n        require(isWhitelisted(msg.sender), \"You are not registered.\");\n        \n        proposals.push(Proposal(_description, 0));\n        \n        emit ProposalRegistered(proposals.length - 1);\n    }\n    \n    \n    function vote(uint _proposalId) public {\n        require(workflowStatus == WorkflowStatus.VotingSessionStarted, \"Voting session is not started.\");\n        require(isWhitelisted(msg.sender), \"You are not registered.\");\n        require(_proposalId < proposals.length, \"Unknown proposalId\");\n\n        require(!voters[msg.sender].hasVoted, \"You have already voted.\");\n        voters[msg.sender].hasVoted = true;\n        voters[msg.sender].votedProposalId = _proposalId;\n        \n        proposals[_proposalId].voteCount ++;\n        \n        // We track the winning proposal here, so we don't have to do a loop on votes later.\n        // But this works only if there is a single winner (no draw), otherwise the first with higher votes is the winner.\n        if (proposals[_proposalId].voteCount > maxVoteCount) {\n            maxVoteCount = proposals[_proposalId].voteCount;\n            winningProposalId = _proposalId;\n        }\n        \n        emit Voted(msg.sender, _proposalId);\n    }\n    \n    \n    function isWhitelisted(address _address) public view returns (bool) {\n        return voters[_address].isRegistered;\n    }\n    \n\n    function getWinningProposal() public view returns (uint _proposalId, string memory _description, uint _voteCount) {\n        require(workflowStatus == WorkflowStatus.VotesTallied, \"Voting session is not ended.\");\n        \n        Proposal memory proposal = proposals[winningProposalId];\n        \n        return (winningProposalId, proposal.description, proposal.voteCount);\n    }\n\n} \n",
  "sourcePath": "C:/ws/alyra/dapp-votes/contracts/Voting.sol",
  "compiler": {
    "name": "solc",
    "version": "0.6.11+commit.5ef660b1.Emscripten.clang"
  },
  "schemaVersion": "3.3.4",
  "updatedAt": "2021-02-27T12:27:27.355Z",
  "networkType": "ethereum",
  "devdoc": {
    "kind": "dev",
    "methods": {
      "owner()": {
        "details": "Returns the address of the current owner."
      },
      "renounceOwnership()": {
        "details": "Leaves the contract without owner. It will not be possible to call `onlyOwner` functions anymore. Can only be called by the current owner. NOTE: Renouncing ownership will leave the contract without an owner, thereby removing any functionality that is only available to the owner."
      },
      "transferOwnership(address)": {
        "details": "Transfers ownership of the contract to a new account (`newOwner`). Can only be called by the current owner."
      }
    },
    "version": 1
  },
  "userdoc": {
    "kind": "user",
    "methods": {},
    "version": 1
  }
}